:040000000AEF00F013
:10000800FACF02F0FBCF03F0C8ED08F079EF0BF060
:1006000000000000000000000000000000000000EA
:1006100000000000000000000000000000000000DA
:100620000000004800000000463F400000454941EE
:10063000470A01020304050607080944434A004B20
:10064000424C0B0C0D0E0F10111213141516171827
:10065000191A1B1C1D1E1F2021222324000000002C
:10066000000025262728292A2B2C2D2E2F30313229
:10067000333435363738393A3B3C3D3E00000000D4
:100680000001000A006400E80310272425642C25DB
:10069000642C25642C25642C25642C25642C25646D
:1006A0002C25642C25642C25640A0054656D703A51
:1006B0002564433B256443004864673A2030302575
:1006C0006400004864673A2030256400004864678D
:1006D0003A20256400002D2D202D2D002564206D4D
:1006E000006C0000000E01010101996F000E010174
:1006F000986F000E010101019B6F000E01019A6FBE
:10070000000E010101019D6F000E01019C6F000EA2
:10071000010101019F6F000E01019E6F9268380E6A
:10072000936EA70E946E1F0E956E030E966E8D84BB
:10073000F18E300E9D6E0A0EC16E170EC06EC28015
:1007400082EC07F0000E116E830E106E7C0E48ECEA
:1007500009F0010E00EC0BF0426E7B0E4224010109
:100760000101986F01010101996BFF0E9923030E9E
:1007700000EC0BF0426EA70E4224010101019A6FBA
:10078000010101019B6BFF0E9B23010198C142F007
:10079000010199C143F0010101019A514226010171
:1007A00001019B5143227F0E422401010101866F0A
:1007B000000E43200101876F01019AC142F001013F
:1007C0009BC143F0421E431E424A432A01010101DC
:1007D0009851422601010101995143227F0E422482
:1007E00001010101886F000E43200101896F000E95
:1007F00000EC0BF0426EEC0E4224010101018A6F05
:10080000010101018B6BFF0E8B23020E00EC0BF03C
:10081000426E0A0E4224010101018C6F01010101A7
:100820008D6B000E8D232FEC0BF010C08EF111C0DC
:100830008FF11AEC0BF010C090F111C091F1050E80
:1008400000EC0BF0426E425001010101926F010178
:10085000936B060E00EC0BF0426E42500101010159
:10086000946F0101956B81A603D0426A422A01D0A0
:10087000426A425001010101966F0101976B000E1F
:10088000010101019D6F000E01019C6F000E01012D
:1008900001019F6F010E01019E6F010101019F5136
:1008A000800A800F0A0ED8B49E5DD8B027D0D890A9
:1008B000010101019E35426E010101019F35436E28
:1008C0000101840E4224D96E0101010E4320DA6E2B
:1008D000DECF44F0DDCF45F0010101019C514424FD
:1008E000010101019C6F010101019D5145200101A0
:1008F0009D6F010101019E4B9F2BCFD70101010E7E
:100900001F6E0101000E1E6E060E216E8B0E206EF4
:1009100086C122F087C123F088C124F089C125F067
:100920008AC126F08BC127F08CC128F08DC129F037
:100930008EC12AF08FC12BF090C12CF091C12DF007
:1009400092C12EF093C12FF094C130F095C131F0D7
:1009500096C132F097C133F09CC134F09DC135F09F
:10096000CFEC06F00101010E126E0101000E116EB6
:1009700059EC0BF001010101A505D8A4CAD0010171
:10098000A4C120F0216A000E246E000E236E2C0EEE
:10099000226E6CEC08F020C0A2F121C0A3F101018D
:1009A000A3C117F00101A2C116F005EC08F016C0B2
:1009B0007EF117C07FF10101A4C120F0216A000E71
:1009C000246E000E236E2C0E226E6CEC08F020C0FC
:1009D000A2F121C0A3F10101A3C117F00101A2C13D
:1009E00016F005EC08F016C0A0F117C0A1F1010146
:1009F000A4C120F0216A000E246E000E236E2C0E7E
:100A0000226E6CEC08F020C0A2F121C0A3F101011C
:100A1000A3C117F00101A2C116F005EC08F016C041
:100A20005AF117C05BF10101A4C120F0216A000E48
:100A3000246E000E236E2C0E226E6CEC08F020C08B
:100A4000A2F121C0A3F10101A3C117F00101A2C1CC
:100A500016F005EC08F016C05CF117C05DF101015D
:100A6000A4C120F0216A000E246E000E236E2C0E0D
:100A7000226E6CEC08F020C0A2F121C0A3F10101AC
:100A8000A3C117F00101A2C116F005EC08F016C0D1
:100A900080F117C081F10101A4C120F0216A000E8C
:100AA000246E000E236E2C0E226E6CEC08F020C01B
:100AB000A2F121C0A3F10101A3C117F00101A2C15C
:100AC00016F005EC08F016C082F117C083F10101A1
:100AD000A4C120F0216A000E246E000E236E2C0E9D
:100AE000226E6CEC08F020C0A2F121C0A3F101013C
:100AF000A3C117F00101A2C116F005EC08F016C061
:100B00005EF117C05FF1426E000E01010101A56F99
:100B100042500101010E1F6E01013C0E1E6E060EB9
:100B2000216EAB0E206E82C122F083C123F080C102
:100B300024F081C125F0CFEC06F0000E216E010EED
:100B4000206E000E236E010E226E0101010E256E35
:100B500001013C0E246E0101010E116E01013C0EDB
:100B6000106EC6EC0AF01050266E5EEC0AF0010121
:100B70000101A151800AF36E800EF35C640ED8B4BB
:100B8000A05DD8B010D00101010E1F6E0101600EF2
:100B90001E6E060E216EC30E206EA0C122F0A1C1F2
:100BA00023F0CFEC06F001010101A151800AF36EA0
:100BB000800EF35C0A0ED8B4A05DD8B011D001014C
:100BC000010E1F6E0101600E1E6E060E216EB80E24
:100BD000206EA0C122F0A1C123F0CFEC06F010D00E
:100BE0000101010E1F6E0101600E1E6E060E216EC8
:100BF000CD0E206EA0C122F0A1C123F0CFEC06F0F3
:100C0000000E216E010E206E000E236E150E226E58
:100C10000101010E256E0101600E246E0101010E1D
:100C2000116E0101600E106EC6EC0AF01050266EB7
:100C30005EEC0AF00101010E1F6E0101600E1E6ED6
:100C4000060E216EDC0E206E7EC122F07FC123F0E5
:100C5000CFEC06F0000E216E0C0E206E000E236EFF
:100C60000C0E226E0101010E256E0101600E246E34
:100C70000101010E116E0101600E106EC6EC0AF04A
:100C80001050266E5EEC0AF081A616D0426E010E60
:100C9000166E4250436EF50E176E43500C0E0FEC5D
:100CA00009F0426E020E166E4250436EF60E176E3B
:100CB00043500C0E0FEC09F00101010E1F6E0101F3
:100CC000600E1E6E060E216ED60E206ECFEC06F064
:100CD000000E216E070E206E000E236E0D0E226E8A
:100CE0000101010E256E0101600E246E0101010E4D
:100CF000116E0101600E106EC6EC0AF01050266EE7
:100D00005EEC0AF00101010E1F6E0101600E1E6E05
:100D1000060E216EE10E206ECFEC06F0000E216E65
:100D2000060E206E000E236E0F0E226E0101010EC4
:100D3000256E0101600E246E0101010E116E01018C
:100D4000600E106EC6EC0AF01050266E5EEC0AF0D3
:100D50000101010E1F6E0101600E1E6E060E216E56
:100D6000E10E206ECFEC06F0000E216E080E206E14
:100D7000000E236E0F0E226E0101010E256E010181
:100D8000600E246E0101010E116E0101600E106EE5
:100D9000C6EC0AF01050266E5EEC0AF0DAD4000EB3
:100DA000396E220E386E9CD04150250AD8B409D035
:100DB0001EC0D9FF1FC0DAFF41C0DFFF1E4A1F2A35
:100DC0008FD0366E000E3A6E365020C0F6FF21C02E
:100DD000F7FF204A212A0800F5CF41F04150000AD0
:100DE000D8B489D0640AD8B403D00D0AD8A478D076
:100DF00038C0D9FF39C0DAFFDECF3CF0DDCF3DF09F
:100E0000020E3826000E39223D50800AF36E800E05
:100E1000F35C000ED8B43C5CD8B006D0030E3A1296
:100E20003C6C3D1ED8B03D2A366E010E416E3650E8
:100E30004150050AD8B416D04150020D810EF3245A
:100E4000F66E060EF420F76E0900F5CF36F00900B5
:100E5000F5CF37F036503C5C37503D58D8A002D023
:100E6000412AE6D73AC036F0030E3616D8B408D079
:100E70001EC0D9FF1FC0DAFF2D0EDF6E1E4A1F2ACB
:100E800041C03BF029D03B50020D810EF324F66E99
:100E9000060EF420F76E0900F5CF12F00A00F5CF28
:100EA00013F03CC010F03DC011F033EC0AF010C05C
:100EB00018F011C019F0000E1B6E0A0E1A6E85ECA8
:100EC0000AF01850300F416E1EC0D9FF1FC0DAFF64
:100ED00041C0DFFF1E4A1F2A3B063B28D8A4D3D7B8
:100EE00020C0F6FF21C0F7FF204A212A0800F5CFD5
:100EF00041F0416659D71EC0D9FF1FC0DAFF000E6E
:100F0000DF6E120094908B90F29E156E000E106EA4
:100F10001550166E000E116E1650000EADEC09F055
:100F2000820E156EDE0EE82EFED7152EFCD7820E31
:100F3000156EDE0EE82EFED7152EFCD7820E156E2E
:100F4000DE0EE82EFED7152EFCD78B80820E156E96
:100F5000DE0EE82EFED7152EFCD7820E156EDE0EA5
:100F6000E82EFED7152EFCD7820E156EDE0EE82E6B
:100F7000FED7152EFCD7000E6CEC0BF0040E6CECBB
:100F80000BF0010E6CEC0BF04F0E6CEC0BF0020E44
:100F90006CEC0BF02B0E6CEC0BF0030E6CEC0BF00E
:100FA000160E6CEC0BF0000EA8EC0AF0F29E090E87
:100FB0006CEC0BF0000E6CEC0BF0080E6CEC0BF014
:100FC000500E6CEC0BF00A0E6CEC0BF0010E6CEC9E
:100FD0000BF00B0E6CEC0BF0550E6CEC0BF0080EDE
:100FE0006CEC0BF0A00E6CEC0BF0820E156EDE0EAE
:100FF000E82EFED7152EFCD7820E156EDE0EE82EDB
:10100000FED7152EFCD7F28E120002D0164A172AF0
:1010100016C0D9FF17C0DAFFDF50200AD8B4F6D7C0
:1010200016C0D9FF17C0DAFFDF50090AD8B4EED7CF
:10103000000E1C6E000E1B6E186E000E1A6E1850FD
:101040002D0E16C0D9FF17C0DAFFDF6202D01A2AB0
:1010500023D02B0E16C0D9FF17C0DAFFDF621ED0D7
:101060001BD01BC010F01CC011F0000E136E0A0E36
:10107000126EE3EC0AF016C0D9FF17C0DAFFDF509A
:10108000186E196A1050182611501922D00E182403
:101090001B6EFF0E19201C6E164A172A16C0D9FFA8
:1010A00017C0DAFFDF5044EC0BF0D8B0DAD71A5093
:1010B000D8B40DD01BC018F01CC019F0181E191E92
:1010C000184A192A18C016F019C017F004D01BC00E
:1010D00016F01CC017F0120021502010D8A404D024
:1010E00047C021F046C020F021502010D8A405D0E0
:1010F000000E216E000E206E4AD021C019F020C0D3
:1011000018F024C01CF023C01BF022C01AF0DBEC46
:1011100009F0185020261950212220C0D9FF21C0E3
:10112000DAFFDF50D8A409D0000E476E000E466EDD
:1011300047C021F046C020F02AD021C019F020C0BD
:1011400018F024C01CF023C01BF022C01AF007ECDA
:101150000AF018502024466E19502120476E46C0D0
:10116000D9FF47C0DAFFDF50D8B409D046C0D9FF55
:1011700047C0DAFF000EDF6E464A472A04D0000E51
:10118000476E000E466E21C021F020C020F01200F4
:101190000600E9CF04F0EACF05F0E1CF06F0E2CF98
:1011A00007F0D9CF08F0DACF09F0F3CF0AF0F4CF87
:1011B0000BF0F6CF0CF0F7CF0DF0F8CF0EF0F5CF27
:1011C0000FF0F29E9EAA0DD0AECFA4F10101010155
:1011D000A429D8A406D0016E010E01010101A56F5A
:1011E0000150F28E0FC0F5FF0EC0F8FF0DC0F7FFE3
:1011F0000CC0F6FF0BC0F4FF0AC0F3FF09C0DAFF12
:1012000008C0D9FF07C0E2FF06C0E1FF05C0EAFF42
:1012100004C0E9FF03C0FBFF02C0FAFF1100E8CFE2
:101220001BF0FF0E1B24106E116AFF0E1122000E20
:10123000136E1E0E126EE3EC0AF01650186E196A49
:101240001050182611501922FF0E18241E6EFF0E82
:1012500019201F6E1EC01CF01FC018F018C019F016
:101260001A6A19501D6EF29E050E6CEC0BF01D50A3
:101270006CEC0BF0060E6CEC0BF01C506CEC0BF0F5
:10128000070E6CEC0BF017506CEC0BF0F28E1200AA
:10129000E8CF15F0000EAC6E000EAB6E15B0AC884A
:1012A00015A202D0AC8CAB8C15B4AC8E15A602D0B6
:1012B000AB8801D0AB8A15B8AC849E9815BAAB86C2
:1012C00015AC02D09D8A01D09D9A9E9A15AE02D08F
:1012D0009D8801D09D9810C0AFFF11C012F012C0C0
:1012E00013F0146A1350B06EAC8AAB8E949C948E3B
:1012F000ACB8ACBE01D0948C120010C0F6FF11C087
:10130000F7FF12C0F8FF0800F5501318D8A407D053
:1013100012C012F011C011F010C010F01DD020EE5C
:1013200010F0DFCF15F0DE2ADECF16F0DDCF17F09C
:10133000000EDE22DF2215C0F6FF16C0F7FF17C031
:10134000F8FF0800F5500009D8A4D7D7200E126E78
:10135000000E116E000E106E1200E8CF12F03F0E5C
:10136000C716000EC66E1250C6121150C71205D015
:10137000C78C15D0C78CC68812D01050000AD8B4BC
:10138000F7D7020AD8B4F6D7010AD8B4F4D707D0F1
:101390009486928A0CD094860AD0949608D01250E3
:1013A000040AD8B4F5D7010AD8B4F5D7F6D794888B
:1013B000949AC68A1200000E1F6E000E1E6E04D094
:1013C000184A192A1E4A1F2A18C0D9FF19C0DAFF65
:1013D000DF50D8B417D01CC012F01BC011F01AC0D7
:1013E00010F018C0D9FF19C0DAFFDF501D6E1D5074
:1013F000136E146A7DEC09F01250DF0B11101010FF
:10140000D8A4DED71EC018F01FC019F01200000EBD
:101410001F6E000E1E6E04D0184A192A1E4A1F2A7B
:1014200018C0D9FF19C0DAFFDF50D8B417D01CC0DC
:1014300012F01BC011F01AC010F018C0D9FF19C06B
:10144000DAFFDF501D6E1D50136E146A7DEC09F03B
:101450001250DF0B11101010D8B4DED71EC018F0D8
:101460001FC019F01200000E166E000E156E1350FC
:101470001210D8B41ED0146E010E176E145004D082
:10148000D89012361336172A13AEFAD7D8901536DD
:1014900016361250105C13501158D8A005D01250B7
:1014A000105E1350115A1580D89013321232172E35
:1014B000EDD715C010F016C011F01200276E000E07
:1014C000286E27501DD022C016F02850010DF35071
:1014D0002424D96EF4502520DA6EDF50276E275071
:1014E000010D010EF324F66E060EF420F76E0800CF
:1014F000F5CF17F020500FEC09F0282A224A232AB2
:101500002850265CD8A01200DED71B501A10D8B481
:101510001AD01C6E010E1D6E1C5004D0D8901A36C5
:101520001B361D2A1BAEFAD71A50185C1B501958CF
:10153000D8A004D01A50185E1B50195AD8901B32EC
:101540001A321D2EF1D718C018F019C019F0120068
:10155000E8CF13F0126E000E146E1250F29E800E41
:101560006CEC0BF08FEC0BF0146E1350D8B403D06E
:101570001450080902D01450F70B146E000E6CECD6
:101580000BF0080E6CEC0BF0F28E120011C015F08F
:1015900010C014F002D0144A152A14C0D9FF15C087
:1015A000DAFFDF50D8A4F7D710C012F011C013F043
:1015B000121E131E124A132A14501224106E1550B4
:1015C0001320116E120010501202F3CF14F0F4CF5A
:1015D00015F010501302F3CFF4FFF36AF350142602
:1015E000F450152211501202F3CFF4FFF36AF350B6
:1015F0001426F450152214C010F015C011F012007A
:10160000E8CF11F0106E000E126E1050FA0E00F0BE
:10161000E82EFDD711C010F010461046C250101829
:10162000C30B1018C26EC282C2B2FED7C4CF12F072
:101630001250120083A004D0000E136EBB0E09D00E
:1016400082A404D0000E136E430E03D0000E136E5E
:101650007F0E126E12C010F013C011F0120081A89C
:1016600004D0000E136EBB0E09D080A804D0000E6B
:10167000136E430E03D0000E136E7F0E126E12C057
:1016800010F013C011F01200E8CF12F0106E000E2F
:10169000116E10503A0E125CD8B007D02F0E1264A3
:1016A00004D0106E010E116E105011C010F01030E9
:1016B0001200ACA2FED711C0D9FF12C0DAFFDF5072
:1016C00085EC0BF011C0D9FF12C0DAFF114A122AC3
:1016D000DF50D8B41200EDD7E8CF11F0C9CF10F029
:1016E0009E96C69E11C0C9FFC6BE02D09EA6FED75A
:1016F00012000101A56BA46B496A486A476A466AF1
:10170000000EF86E000172EF03F0E8CF10F0ACAC01
:1017100003D0AC9048B2AC8010C0ADFF1200C9CF6E
:1017200010F09E96000EC96E9EA6FED7C9501200FC
:020000040020DA
:08000000FFFFFFFFFFFFFFFF00
:020000040030CA
:0E000000FF02191EFF8380FF0FC00FE00F40AC
:00000001FF
