:04000000DDEF00F040
:10000800FACF08F0FBCF09F0E9CF0AF0EACF0BF0FE
:10001800E1CF0CF0E2CF0DF0D9CF0EF0DACF0FF030
:10002800F3CF10F0F4CF11F0F6CF12F0F7CF13F0B2
:10003800F8CF14F0F5CF15F0F29EA1BE8182F2A49C
:100048000AD0F294000ED76E000ED66E00013F88DB
:1000580001010101BD2B9EA014D09E90000ECF6E11
:10006800000ECE6E010101018E4B8F2B150E010182
:1000780001018E5D000E01018F59D8B089980001E9
:100088003F8A9EAA6BD09E9A4650010D0001B90E78
:10009800F324D96E0001000EF420DA6EAECFDFFF34
:1000A8002B0E466404D0076E000E466E075046506D
:1000B800010D0001B90EF324D96E0001000EF420E1
:1000C800DA6E0A0EDF6230D000010001B951240A4D
:1000D800D8A42AD04628466E0DD04650010D0001FE
:1000E800B90EF324D96E0001000EF420DA6E000E6A
:1000F800DF6E462A2C0E4664F0D700013FB40ED0BE
:100108000101010E026E0101900E016E0001000E48
:10011800046E0001B90E036E52EC14F000013F8426
:10012800076E000E466E0750462A4604076E0750B3
:10013800010D0001B90EF324D96E0001000EF42060
:10014800DA6E240EDF620AD0076E240E0001000169
:10015800B96F0750076E010E466E0750A4AA03D068
:10016800A49A00013F86F2A206D0F29200013F80D5
:100178004C0E3BEC14F0F28E15C0F5FF14C0F8FFDE
:1001880013C0F7FF12C0F6FF11C0F4FF10C0F3FF51
:100198000FC0DAFF0EC0D9FF0DC0E2FF0CC0E1FFAF
:1001A8000BC0EAFF0AC0E9FF09C0FBFF08C0FAFF5D
:0601B800110095EF11F0AB
:100600000001000A006400E80310272C000000002D
:1006100000803FF0FFBEE2A93E8376BEAE2B3E3C9B
:10062000C3BDD2133D78D3BB3C04429F6A429001C4
:10063000424DBB40EC473E8E1FBB3C04425A8B42AE
:100640000444429C4F4100803F25642C25642C25A6
:10065000642C25642C25642C25642C25642C2564AD
:100660002C25642C25642C25642C256420002C006A
:100670000000000E01010101436F000E0101426FF5
:10068000000E01010101666F000E0101656F00019E
:10069000AF6F000E01010101626F0001AF5121EE49
:1006A00070F011EE44F01E0EDECFE6FFE82EFCD710
:1006B0000B0EF66E060EF76E09000101F5CF3CF148
:1006C0000A000101F5CF3DF10001AF6F000E0101FD
:1006D00001016F6F0001AF51000E010101016E6F4A
:1006E000000E01016D6F000E010101016A6F000E25
:1006F0000101696F00F000F004007F0ED06E16EC6F
:100700000FF0000E000100018B6F000E00018A6FD8
:100710000001AF6F010E000100018C6F0001AF51AD
:10072000A2EC07F0000E000100018B6F000E00012B
:100730008A6F0001AF6F020E000100018C6F000193
:10074000AF51A2EC07F0000E000100018B6F000E0C
:1007500000018A6F0001AF6F030E000100018C6F72
:100760000001AF51A2EC07F0000E000100018B6FF9
:10077000000E00018A6F0001AF6F040E000100013E
:100780008C6F0001AF51A2EC07F004000101010ED3
:1007900000010001616F0101000E00010001606FA6
:1007A000060E00010001636F490E00010001626F37
:1007B00044C164F045C165F046C166F047C167F0C9
:1007C00048C168F049C169F04AC16AF04BC16BF099
:1007D0004CC16CF04DC16DF04EC16EF04FC16FF069
:1007E00050C170F051C171F052C172F053C173F039
:1007F00054C174F055C175F06DC176F06EC177F0DB
:1008000069C178F06AC179F06BC17AF06CC17BF094
:1008100020EC0CF00A0E01010101BD655CD0000165
:10082000AF6F010E01010101BD6F0001AF5194ECEA
:100830000DF000018AC03EF100018BC03FF118ECC1
:100840000EF000018AC06BF100018BC06CF1010158
:1008500001016C51800A7D0F530ED8B46B5DD8A096
:1008600003D0500EA7EC14F0010101016C51800A75
:100870007D0F530ED8B46B5DD8A003D0500E24EC7E
:1008800014F0F3EC0FF000018AC063F100018BC09B
:1008900064F1010101016451800A800F420ED8B455
:1008A000635DD8A003D0540EA7EC14F00101010140
:1008B0006451800A800F4C0ED8B4635DD8A003D079
:1008C000540E24EC14F082EC0AF00001A3C040F1B5
:1008D0000001A4C041F10101BDC116F0176A000E6C
:1008E000196E050E186EFDEC10F017501610D8A4F6
:1008F00015D000013FA812D00101010E1D6E0101AB
:10090000000E1C6E0101010E176E0101000E166E25
:1009100078EC13F016041E6ECFEC12F00400010107
:100920000101BDB135D000013FA832D0010E09EC64
:1009300014F016C01FF017C020F0000E226E050E36
:10094000216E95EC13F01FC042F120C043F1000E60
:1009500009EC14F016C065F117C066F10101010140
:100960006651800A790FD40ED8B4655DD8A003D043
:10097000430EA7EC14F0010101016651800A790FC2
:10098000D10ED8B4655DD8A003D0430E24EC14F08A
:1009900000013FA802D000013F980400150E01019C
:1009A00001018E5D000E01018F59D8B005D0010103
:1009B00001016251D8B40CD00001AF6F010E0101EA
:1009C0000101626F0001AF5189984E0E24EC14F0C2
:1009D00000013FA410D1ACA2FED70101010E186E98
:1009E0000101900E176E94EC14F00101010E226EBD
:1009F0000101910E216E060E246E6E0E236E51ECD7
:100A000010F021C067F122C068F1010168C128F02F
:100A1000010167C127F08CEC0FF027C044F128C01A
:100A200045F144C16DF145C16EF10001AF6F010E9A
:100A3000010101016F6F0001AF5148D0000E226E1D
:100A4000000E216E060E246E6E0E236E51EC10F019
:100A500021C067F122C068F1010168C128F00101DD
:100A600067C127F08CEC0FF0010101016F51020DFD
:100A70000101440EF324D96E0101010EF420DA6E57
:100A800027C0DEFF28C0DDFF010101016F51020D0B
:100A90000101440EF324D96E0101010EF420DA6E37
:100AA000DECFAFF0DDCFB0F0010101016D510001EB
:100AB000AF25010101016D6F010101016E510001BE
:100AC000B02101016E6F010101016F2B080E0101C0
:100AD00001016F65B3D7000E226E000E216E060E67
:100AE000246E6E0E236E51EC10F021C027F022C050
:100AF00028F08CEC0FF027C069F128C06AF10101E1
:100B000001016A51010101016E1906E101010101B2
:100B10006951010101016D19D8A465D0000E0101D0
:100B200001018F6F000E01018E6F0001AF6F000E8B
:100B300001010101626F0001AF51898844C18AF04F
:100B400045C18BF00001AF6F010E000100018C6FF9
:100B50000001AF51A2EC07F046C18AF047C18BF00B
:100B60000001AF6F020E000100018C6F0001AF5158
:100B7000A2EC07F048C18AF049C18BF00001AF6FC9
:100B8000030E000100018C6F0001AF51A2EC07F0D1
:100B90004AC18AF04BC18BF00001AF6F040E000117
:100BA00000018C6F0001AF51A2EC07F04CC116F0B0
:100BB0004DC117F04EC118F04FC119F0A8EC12F05A
:100BC00050C11FF051C120F052C121F053C122F099
:100BD000B9EC14F00101010155515411D8B402D0FF
:100BE0008C8601D08C960001AF6F000E466E00011E
:100BF000AF5100013F9400013FA602D000013F9693
:100C0000040000013FB002D081A2BFD500013F9097
:100C10004C0E24EC14F0B9D500017DC081F0000128
:100C2000826B836B000100017C350001813701E399
:100C300082810001815100010001896F000180C0A3
:100C400081F00001826B836B000100017F350001A0
:100C5000813701E382810001815100010001886F29
:100C6000000100018951D8B416D00001000188515B
:100C700000010001895DD8B015D000010001895143
:100C800000080001000188250001816F190E000194
:100C9000815DD8A007D07EC07BF07FC07CF080C093
:100CA0007DF01200000100018851D8B416D0000177
:100CB0000001895100010001885DD8B015D0000104
:100CC0000001885100080001000189250001816FA1
:100CD000190E0001815DD8A007D07BC07BF07CC0DD
:100CE0007CF07DC07DF012000001816F060E0001D6
:100CF0000001876F00018151000100017DAF03D029
:100D000000010001878F0001000180AF03D00001C6
:100D10000001878D000100017C8FFF0E00010001A2
:100D20007B17FF0E000100017C17000E000100017F
:100D30007D17000100017F8FFF0E000100017E176B
:100D4000FF0E000100017F17000E00010001801757
:100D500000010001885100010001895DD8B031D047
:100D60000001D89000017E3700017F3700018037F5
:100D70000001000188070001000188510001000105
:100D80008919D8B416D000010001870787C081F007
:100D9000070E00018117D8B40CD0E2D70001D8901B
:100DA00000017D3300017C3300017B330001000131
:100DB000892B000100018851000100018963EED7F1
:100DC00038D000010001895100010001885DD8B0D0
:100DD00030D00001D89000017B3700017C37000142
:100DE0007D370001000189070001000188510001E1
:100DF00000018919D8B416D000010001870787C007
:100E000081F0070E00018117D8B40CD0E2D70001A1
:100E1000D8900001803300017F3300017E33000150
:100E20000001882B00010001885100010001896345
:100E3000EED70001000187AF18D0FF0E00010001BE
:100E40007B1BFF0E000100017C1BFF0E0001000157
:100E50007D1B010E000100017B27000E0001000137
:100E60007C23000E000100017D230001000187ADFD
:100E700018D0FF0E000100017E1BFF0E00010001D3
:100E80007F1BFF0E00010001801B010E000100010D
:100E90007E27000E000100017F23000E00010001EB
:100EA00080230001816F000E00010001876F0001A7
:100EB0008151000100017B51000100017E270001EA
:100EC00000017C51000100017F23000100017D51E0
:100ED0000001000180230001000180AF20D0FF0E3F
:100EE000000100017E1BFF0E000100017F1BFF0EB1
:100EF00000010001801B010E000100017E27000E91
:100F0000000100017F23000E000100018023000189
:100F1000816F010E00010001876F000181517EC0C9
:100F200016F07FC017F080C018F089C019F087C094
:100F30001AF0A9EC10F016C07BF017C07CF018C0B6
:100F40007DF0120000018D6F000E00010001936F13
:100F500000018D51000E00010001956F000E00018F
:100F6000946F000100018B51800A800F870ED8B466
:100F70008A5DD8A051D000018D6F010E00010001E3
:100F8000936F00018D51000E00010001696F800E0A
:100F9000000100016A6F430E000100016B6F000E3B
:100FA00000010001636FFC0E00010001646F420E3E
:100FB00000010001656F810E000100018A251E6E8F
:100FC000FF0E000100018B211F6E2EEC12F01EC0DF
:100FD00060F01FC061F020C062F0E3EC0CF060C074
:100FE00066F061C067F062C068F0C2EC08F066C0ED
:100FF0007BF067C07CF068C07DF0AEEC09F07BC090
:101000008DF07CC08EF07DC08FF07EC090F08DC0E2
:1010100094F08EC095F0A6D0000100018B51800A9B
:10102000F36E800EF35C780ED8B48A5DD8B05AD0D7
:1010300000018D6F000E00010001936F00018D51C2
:10104000000E00010001696F800E000100016A6F4F
:10105000430E000100016B6F000E00010001636F81
:10106000FC0E00010001646F420E00010001656F7B
:1010700000018AC08DF000018BC08EF000018D1F31
:101080008E1F8D4B8E2B7E0E00018D251E6E000E49
:1010900000018E211F6E2EEC12F01EC060F01FC0EA
:1010A00061F020C062F0E3EC0CF060C066F061C05B
:1010B00067F062C068F0C2EC08F066C07BF067C001
:1010C0007CF068C07DF0AEEC09F07BC08FF07CC096
:1010D00090F07DC091F07EC092F08FC094F090C0EF
:1010E00095F040D0000E00010001956F000E000148
:1010F000946F38D00001000193B102D08A9601D0DC
:101100008A8694C016F095C017F0ECEC13F012002C
:101110000001000193B102D08A9801D08A8894C05E
:1011200016F095C017F0CFEC13F01200000100018B
:1011300093B102D08A9C01D08A8C94C016F095C0DD
:1011400017F039EC13F012000001000193B102D046
:101150008C9001D08C8094C016F095C017F018ECDC
:1011600013F01200000100018C51010AD8B4C2D75B
:10117000030AD8B4CDD7010AD8B4D8D7070AD8A45F
:101180001200E2D7000168C06CF000016D6B6E6B5D
:1011900000010001673500016C3701E36D8100013A
:1011A0006C5100010001756F000175670DD0000ED4
:1011B00000010001666F000E00010001676F000E64
:1011C00000010001686F120000016BC06CF00001AB
:1011D0006D6B6E6B000100016A3500016C3701E335
:1011E0006D8100016C51000100017A6F00017A6786
:1011F0000DD0000E00010001666F000E000100011D
:10120000676F000E00010001686F1200000100010D
:101210007A517B0F00010001752768C07AF0000148
:1012200000016B51000100017A1B800E00010001DA
:101230007A1700010001678F000100016A8FFF0E1D
:10124000000100016917FF0E000100016A17000E7E
:10125000000100016B17000E00010001766F000E07
:1012600000010001776F000E00010001786F00019E
:101270006C6F070E00010001796F00016C510001D5
:10128000000166A112D000010001695100010001B6
:101290007627000100016A51000100017723000157
:1012A00000016B510001000178230001D89000017A
:1012B000683300016733000166330001D8900001F4
:1012C000693700016A3700016B3700010001792F8F
:1012D000D6D700016C6F090E00010001796F000183
:1012E0006C510001000166A112D00001000169519A
:1012F000000100017627000100016A510001000190
:101300007723000100016B510001000178230001E7
:10131000D890000168330001673300016633000193
:10132000D890000178330001773300017633000153
:101330000001792FD6D776C016F077C017F078C0A5
:1013400018F075C019F07AC01AF0A9EC10F016C0A8
:1013500066F017C067F018C068F0120000017DC089
:101360007FF00001806B816B000100017C35000182
:101370007F3701E3808100017F5100010001896F07
:10138000000189670ED0000E000100017B6F000E86
:1013900000017C6F000E00017D6F000E00017E6F6A
:1013A0001200170E00017F6F00017BC080F000016A
:1013B0007CC081F000017DC082F000017F29000126
:1013C000836F05D00001D8908233813380330001D0
:1013D000832FF8D70001805100010001846F0001C4
:1013E00000017C8FFF0E000100017B17FF0E000142
:1013F00000017C17000E000100017D1700010001B3
:101400007B5100010001856F000100017C5100014A
:10141000866F00017D510001876F0001886B8E0E81
:1014200000010001895F0001000189AF29D000019E
:1014300000018951800A00017F6FF10E800A0001CE
:101440007F5DD8B00ED0000E000100017B6F000E52
:1014500000017C6F000E00017D6F000E00017E6FA9
:1014600012000001D8900001883300018733000189
:1014700086330001853300010001893FF2D724D073
:10148000170E0001000189651BD0000E000100014C
:101490007B6F000E00017C6F000E00017D6F000E5F
:1014A00000017E6F12000001D89000018537000115
:1014B000863700018737000188370001000189075E
:1014C000000100018967EFD7000100018451D8B401
:1014D00010D000010001881F0001871F0001861F36
:1014E0000001856D000E00018623000187230001A5
:1014F000882385C07BF086C07CF087C07DF088C0E3
:101500007EF01200000E00010001AC6F000E000121
:101510000001AD6F000E00010001AE6F160E09EC68
:1015200014F016C01FF017C020F069EC14F01FC0B3
:10153000ACF020C0ADF021C0AEF0000E0001000103
:10154000636F800E00010001646F440E0001000112
:10155000656FACC060F0ADC061F0AEC062F0E3ECAE
:101560000CF060C066F061C067F062C068F0000E09
:1015700000010001696FA00E000100016A6F400EBA
:10158000000100016B6FC2EC08F066C0ACF067C0F0
:10159000ADF068C0AEF0ACC063F0ADC064F0AEC0FA
:1015A00065F0500E00010001606F430E0001000164
:1015B000616F470E00010001626FE3EC0CF060C048
:1015C0007BF061C07CF062C07DF0400E0001000144
:1015D0007E6F1C0E000100017F6FC60E000100012E
:1015E000806F0CEC06F07BC0ACF07CC0ADF07DC031
:1015F000AEF0ACC099F0ADC09AF0AEC09BF052EC2A
:101600000BF099C0A9F09AC0AAF09BC0ABF0130EE2
:1016100000010001696FB00E000100016A6F410E08
:10162000000100016B6FA9C066F0AAC067F0ABC0F3
:1016300068F0C2EC08F066C0A0F067C0A1F068C016
:10164000A2F0B2EC13F0A0C07BF0A1C07CF0A2C06D
:101650007DF03B0E000100017E6F650E0001000170
:101660007F6F430E00010001806F0CEC06F07BC021
:10167000ACF07CC0ADF07DC0AEF0ACC07BF0ADC0D6
:101680007CF0AEC07DF0AEEC09F07BC0A5F07CC074
:10169000A6F07DC0A7F07EC0A8F0A5C0A3F0A6C0AC
:1016A000A4F01200000100019B51800A800F07E1A5
:1016B000000E00019A5D03E1000E0001995DD8B0B3
:1016C00014D0000E00010001B86F210E0001B76FA9
:1016D000000E00010001996F000E000100019A6FD9
:1016E000000E000100019B6F12007F0E000100013F
:1016F0009B1500019A1100019911D8A414D0000E75
:1017000000010001B86F220E0001B76F000E00014A
:101710000001996F000E000100019A6F000E000198
:1017200000019B6F1200000E00010001696F000EA6
:10173000000100016A6F400E000100016B6F0001A3
:10174000000E1A6E00019E0E196E99C016F09AC016
:1017500017F09BC018F04BEC11F016C066F017C0E4
:1017600067F018C068F0C2EC08F066C07BF067C094
:101770007CF068C07DF0000E000100017E6F800EDD
:10178000000100017F6FBF0E00010001806F0CECB3
:1017900006F07BC099F07CC09AF07DC09BF0000100
:1017A00000019E07D8A09F0799C08AF09AC08BF0CD
:1017B0009BC08CF0060E000100018E6F0D0E000123
:1017C00000018D6F000E00010001906F080E0001F6
:1017D0008F6F9BEC0EF08AC099F08BC09AF08CC092
:1017E0009BF0720E00010001696F310E00010001D3
:1017F0006A6F3F0E000100016B6F9EC01EF09FC01C
:101800001FF02EEC12F01EC066F01FC067F020C063
:1018100068F0C2EC08F066C07BF067C07CF068C07E
:101820007DF099C07EF09AC07FF09BC080F00CECF8
:1018300006F07BC099F07CC09AF07DC09BF012004E
:101840000001000E276E0001640E266EA6D02F50F8
:10185000250AD8B40BD060C0D9FF61C0DAFF2FC011
:10186000DFFF00010001604B612B97D0246E000E5A
:10187000286E2450000162C0F6FF000163C0F7FF2C
:1018800000010001624B632B0800F5CF2FF02F50B1
:10189000000AD8B491D0640AD8B403D00D0AD8A4F1
:1018A0007CD026C0D9FF27C0DAFFDECF2AF0DDCFFB
:1018B0002BF0020E2626000E27222B50800AF36EF4
:1018C000800EF35C000ED8B42A5CD8B006D0030EAC
:1018D00028122A6C2B1ED8B02B2A246E010E2F6ED4
:1018E00024502F50050AD8B416D02F50020D010EE7
:1018F000F324F66E060EF420F76E0900F5CF24F0FF
:101900000900F5CF25F024502A5C25502B58D8A08B
:1019100002D02F2AE6D728C024F0030E2416D8B40C
:101920000AD060C0D9FF61C0DAFF2D0EDF6E000162
:101930000001604B612B2FC029F02BD02950020DE4
:10194000010EF324F66E060EF420F76E0900F5CFB3
:1019500018F00A00F5CF19F02AC016F02BC017F0C6
:1019600003EC12F016C01EF017C01FF0000E216E1F
:101970000A0E206EF5EC12F01E50300F2F6E60C074
:10198000D9FF61C0DAFF2FC0DFFF00010001604B0B
:10199000612B29062928D8A4D1D7000162C0F6FFFF
:1019A000000163C0F7FF00010001624B632B0800D8
:1019B000F5CF2FF02F664BD760C0D9FF61C0DAFF9B
:1019C000000EDF6E1200000162C024F0256A266A54
:1019D00000016135243601E325802450316E3166E3
:1019E0000DD0000E00010001606F000E000100012B
:1019F000616F000E00010001626F1200000165C0FE
:101A000024F0256A266A00016435243601E3258026
:101A10002450326E32660DD0000E00010001606F5E
:101A2000000E00010001616F000E00010001626FF5
:101A30001200000E2E6E000E2F6E000E306E325011
:101A4000890F315E62C032F0000100016551321A27
:101A5000800E321600010001618FFF0E00010001AF
:101A60006017FF0E000100016117000E0001000168
:101A7000621700010001648FFF0E0001000163176F
:101A8000FF0E000100016417000E00010001651740
:101A9000246E180E2D6E2450D8902E362F363036E8
:101AA00000010001635100010001605D00010001BF
:101AB00064510001000161590001000165510001FC
:101AC00000016259D8A013D0000100016351000148
:101AD0000001605F00010001645100010001615BD1
:101AE00000010001655100010001625B2E800001D0
:101AF000D8900001603700016137000162372D2E58
:101B0000CBD72EC016F02FC017F030C018F031C060
:101B100019F032C01AF0A9EC10F016C060F017C02E
:101B200061F018C062F01200030E09EC14F016C048
:101B30001FF017C020F069EC14F01FC092F020C015
:101B400093F021C094F092C07BF093C07CF094C0DD
:101B50007DF0CD0E000100017E6F4C0E00010001F2
:101B60007F6FC30E00010001806F0CEC06F07BC09C
:101B700092F07CC093F07DC094F0000E0001000153
:101B8000696FFA0E000100016A6F430E0001000147
:101B90006B6F92C066F093C067F094C068F0C2ECBF
:101BA00008F066C060F067C061F068C062F0000EC7
:101BB00000010001636F4D0E00010001646F440ECF
:101BC00000010001656FE3EC0CF060C092F061C0B1
:101BD00093F062C094F0D70E00010001696F130EFC
:101BE000000100016A6F400E000100016B6F92C09E
:101BF00066F093C067F094C068F0C2EC08F066C06D
:101C00007BF067C07CF068C07DF0AEEC09F07BC073
:101C10008CF07CC08DF07DC08EF07EC08FF08CC0CB
:101C200090F08DC091F090C08AF091C08BF01200BE
:101C3000000E00010001916F000E0001906F000E78
:101C400000010001926F000E00010001936F000E71
:101C500000010001946F020E09EC14F016C01FF091
:101C600017C020F069EC14F01FC066F020C067F0C8
:101C700021C068F0A90E00010001696F7B0E000110
:101C800000016A6F3A0E000100016B6FC2EC08F0B0
:101C900066C092F067C093F068C094F092C07BF089
:101CA00093C07CF094C07DF0D70E000100017E6FE0
:101CB000230E000100017F6FBD0E00010001806F47
:101CC0000CEC06F07BC092F07CC093F07DC094F0E9
:101CD00092C066F093C067F094C068F06D0E00018A
:101CE0000001696F420E000100016A6F440E00019D
:101CF00000016B6FC2EC08F066C092F067C093F011
:101D000068C094F092C07BF093C07CF094C07DF0EA
:101D1000AEEC09F07BC08CF07CC08DF07DC08EF005
:101D20007EC08FF08CC090F08DC091F090C08AF092
:101D300091C08BF012008FC01FF090C020F0000EF9
:101D4000226E030E216E95EC13F000018DC091F010
:101D500000018EC092F01F50000191272050000119
:101D6000922391C0F6FF92C0F7FF09000001F5CF62
:101D700096F009000001F5CF97F00A000001F5CFB9
:101D800098F047D096C069F097C06AF098C06BF0A1
:101D90008AC066F08BC067F08CC068F0C2EC08F0B7
:101DA00066C07BF067C07CF068C07DF0000E226EDC
:101DB000030E216E000100018F07D8A090078FC08D
:101DC0001FF090C020F095EC13F000018DC091F051
:101DD00000018EC092F01F50000191272050000199
:101DE000922391C0F6FF92C0F7FF09000001F5CFE2
:101DF0007EF009000001F5CF7FF00A000001F5CF69
:101E000080F00CEC06F07BC096F07CC097F07DC0B3
:101E100098F00001000190518F11D8A4B3D796C05B
:101E20008AF097C08BF098C08CF01200010EC26E41
:101E3000000EC16EA30EC06EF00EF26E210E9D6EEE
:101E4000A08EEF0E926E2F0E0F010F01386F000E55
:101E5000806E0400060E936E040E0F010F01396FA1
:101E6000000E816E900E946E000E0F010F013A6FFE
:101E7000000E826EB40E956E000E0F010F013B6FC7
:101E8000000E836EF80E966E000E0F010F013C6F70
:101E9000000E846E820ED56E130ECD6E060EBA6ED7
:101EA000060E0F010F01516F0C0EBD6E0C0E666E0B
:101EB0000C0E0F010F015D6F0F0E0F010F01576F19
:101EC000000EB66E000E646E000E0F010F015B6F08
:101ED000010EB96E010E636E010E0F010F015A6FF4
:101EE0000400010E0F010F01496F090E0F010F01D0
:101EF000486FC69A1C6E800E166E1C50080EC8ECF9
:101F000014F0310EC86E000E176E830E166E7C0E26
:101F1000D6EC11F00400120002D0274A282A27C06C
:101F2000D9FF28C0DAFFDF50200AD8B4F6D727C07F
:101F3000D9FF28C0DAFFDF50090AD8B4EED7000E67
:101F40002D6E000E2C6E296E000E2B6E29502D0E5C
:101F500027C0D9FF28C0DAFFDF6202D02B2A23D0A6
:101F60002B0E27C0D9FF28C0DAFFDF621ED01BD09E
:101F70002CC01FF02DC020F0000E226E0A0E216E24
:101F800095EC13F027C0D9FF28C0DAFFDF50296E87
:101F90002A6A1F50292620502A22D00E29242C6E6E
:101FA000FF0E2A202D6E274A282A27C0D9FF28C0D5
:101FB000DAFFDF507FEC14F0D8B0DAD72B50D8B46A
:101FC0000DD02CC029F02DC02AF0291E2A1E294A26
:101FD0002A2A29C027F02AC028F012002CC027F096
:101FE0002DC028F01200000E00010001906F000EBD
:101FF00000010001916F000E00010001926F080EB8
:1020000009EC14F016C01FF017C020F069EC14F0B2
:102010001FC090F020C091F021C092F0000E00018E
:102020000001636F800E00010001646F440E000127
:102030000001656F90C060F091C061F092C062F0E5
:10204000E3EC0CF060C066F061C067F062C068F05D
:10205000000E00010001696FFA0E000100016A6FB5
:10206000430E000100016B6FC2EC08F066C090F0F7
:1020700067C091F068C092F090C07BF091C07CF096
:1020800092C07DF0AEEC09F07BC08CF07CC08DF08E
:102090007DC08EF07EC08FF08CC08AF08DC08BF03A
:1020A000120022502110D8A404D041C022F040C018
:1020B00021F022502110D8A405D0000E226E000E6F
:1020C000216E120022C01BF021C01AF024C01DF0A6
:1020D00023C01CF058EC12F01A5021261B5022226B
:1020E00021C0D9FF22C0DAFFDF50D8A409D0000EEA
:1020F000416E000E406E41C022F040C021F012003F
:1021000022C01BF021C01AF024C01DF023C01CF017
:1021100080EC12F01A502124406E1B502220416E98
:1021200040C0D9FF41C0DAFFDF50D8B409D040C069
:10213000D9FF41C0DAFF000EDF6E404A412A04D0C9
:10214000000E416E000E406E22C022F021C021F030
:1021500012001950D8B405D0165017101810D8A472
:102160000CD0000E166E000E176E000E186E1200C8
:10217000192AD890183217321632000E16141B6E18
:10218000000E17141C6EFE0E18141D6E1B501C1032
:102190001D10D8B40CD0ECD7192A010E1626000E4B
:1021A0001722000E1822D890183217321632000E5D
:1021B00016141B6E000E17141C6EFF0E18141D6EE5
:1021C0001B501C101D10D8B406D0E6D71906D890A5
:1021D00016361736183617AEF9D719A0179ED890AD
:1021E0001932195018121A50D8A4188E16C016F0A9
:1021F00017C017F018C018F012001A6E000E1C6EEF
:102200001A501750800AF36E800EF35C000ED8B49B
:10221000165CD8B008D0166C171ED8B0172A1A6EE4
:10222000010E1C6E1A501950800AF36E800EF35C7A
:10223000000ED8B4185CD8B004D0186C191ED8B0F1
:10224000192A19501810D8B41AD01A6E010E1B6E24
:102250001A5004D0D890183619361B2A19AEFAD75E
:102260001850165C19501758D8A004D01850165E94
:102270001950175AD890193218321B2EF1D71C500A
:10228000D8B404D0166C171ED8B0172A16C016F092
:1022900017C017F012007F0E181417101610D8A4CC
:1022A0000FD019C0D9FF1AC0DAFF000EDE6E000E83
:1022B000DD6E000E166E000E176E000E186E120008
:1022C00018507F0B1B6ED8901B341C6E1D6A1D3678
:1022D00019C0D9FF1AC0DAFF1CC0DEFF1DC0DDFF28
:1022E00017AE03D01B6A1B2A01D01B6A1B5019C0F2
:1022F000D9FF1AC0DAFFDE12000EDD1219C0D9FFB5
:102300001AC0DAFF820EDE26FF0EDD221880188248
:10231000188418861888188A189C179E16C016F0FC
:1023200017C017F018C018F0120001EE70F04D0E33
:10233000EE6AE806FDE100EEB1F0410EEE6AE80655
:10234000FDE13F6A00EE40F0070EEE6AE806FDE1AF
:10235000EC0EF66E290EF76E000EF86E0900F5CF42
:10236000BDF1E00EF66E290EF76E000EF86E00EE6F
:10237000F2F010EE0CF00900F5CFEEFFE550E15061
:10238000FAE1D40EF66E290EF76E000EF86E00EE2E
:1023900033F010EE0CF00900F5CFEEFFE550E15000
:1023A000FAE1000EF86E000139EF03F0E8CF1BF000
:1023B000000EAC6E000EAB6E1BB0AC881BA202D040
:1023C000AC8CAB8C1BB4AC8E1BA602D0AB8801D0FE
:1023D000AB8A1BB8AC841BBAAB861BAC02D09D8AFF
:1023E00001D09D9A1BAE02D09D8801D09D9816C049
:1023F000AFFF17C018F018C019F01A6A1950B06E64
:10240000AC8AAB8E1200000E1D6E000E1C6E1950B1
:102410001810D8B41ED01A6E010E1B6E1A5004D0BC
:10242000D890183619361B2A19AEFAD7D8901C3610
:102430001D361850165C19501758D8A005D01850E2
:10244000165E1950175A1C80D890193218321B2E5C
:10245000EDD71CC016F01DC017F01200216E000E43
:10246000236E21501F50800AF36E800EF35C000E25
:10247000D8B41E5CD8B008D01E6C1F1ED8B01F2A5E
:10248000216E010E236E21501EC016F01FC017F0E2
:10249000186A216E8E0E196E215023C01AF0A9EC15
:1024A00010F016C01EF017C01FF018C020F0120068
:1024B000000E206E000E1F6E04D01A4A1B2A1F4AFF
:1024C000202A1AC0D9FF1BC0DAFFDF50D8B413D0BE
:1024D0001DC017F01CC016F01AC0D9FF1BC0DAFFD0
:1024E000DF501E6E1E50186E196A5AEC13F017500A
:1024F0001610D8A4E2D71FC01AF020C01BF012009B
:10250000000E206E000E1F6E04D01A4A1B2A1F4AAE
:10251000202A1AC0D9FF1BC0DAFFDF50D8B413D06D
:102520001DC017F01CC016F01AC0D9FF1BC0DAFF7F
:10253000DF501E6E1E50186E196A5AEC13F01750B9
:102540001610D8B4E2D71FC01AF020C01BF012003A
:102550001750800A800F800ED8B4165CD8A002D025
:102560008D8201D08D9216507F0A1710D8A402D008
:102570008D9401D08D841950800A800F800ED8B4BC
:10258000185CD8A002D08A8E01D08A9E18507F0A8B
:102590001910D8A402D08B9012008B8012001F6EED
:1025A000000E206E1F50ACA2FED7240ED6EC14F005
:1025B0001F6E000E206E1F500ED0ACA2FED7205012
:1025C000010DF3501C24D96EF4501D20DA6EDF503B
:1025D000D6EC14F0202A1E50205CD8A0EED7ACA276
:1025E000FED70A0ED6EC14F0120021502010D8B4F9
:1025F0001AD0226E010E236E225004D0D8902036BD
:102600002136232A21AEFAD720501E5C21501F58B4
:10261000D8A004D020501E5E21501F5AD8902132DD
:102620002032232EF1D71EC01EF01FC01FF0120053
:1026300016C018F017C019F0060ED89018361936C3
:10264000E82EFBD718C01AF019C01BF01BC058FFAA
:102650001AC018F0D8901832D8901832300E1816C8
:102660000F010F015751CF0B18100F010F01576FBA
:10267000120016C018F017C019F0060ED8901836C0
:102680001936E82EFBD718C01AF019C01BF01BC072
:102690005EFF1AC018F0D8901832D8901832300E59
:1026A00018160F010F015D51CF0B18100F010F010C
:1026B0005D6F120016C0F6FF17C0F7FF0800F55057
:1026C0001818D8A405D017C017F016C016F01200BD
:1026D00016C0F6FF17C0F7FF164A172A0800F55074
:1026E0000009D8A4E7D7000E176E000E166E120070
:1026F00017C01BF016C01AF002D01A4A1B2A1AC0C3
:10270000D9FF1BC0DAFFDF50D8A4F7D716C018F0E6
:1027100017C019F0181E191E184A192A1A50182421
:10272000166E1B501920176E12001F502102F3CF96
:1027300025F0F4CF26F01F502202F3CFF4FFF36A06
:10274000F3502526F450262220502102F3CFF4FF27
:10275000F36AF3502526F450262225C01FF026C028
:1027600020F012007F0E00010001A2150001A1114E
:102770000001A011D8B40CD0000E00010001A01B74
:10278000000E00010001A11B800E00010001A21B30
:10279000A0C0A0F0A1C0A1F0A2C0A2F0120016C07B
:1027A00018F017C019F0060ED89018361936E82E12
:1027B000FBD718C01AF019C01BF01BC067FF1AC066
:1027C00018F0D8901832D8901832300E181666507B
:1027D000CF0B1810666E120016C018F017C019F053
:1027E000060ED89018361936E82EFBD718C01AF006
:1027F00019C01BF01BC0BEFF1AC018F0D8901832C9
:10280000D8901832300E1816BD50CF0B1810BD6E70
:102810001200E8CF1CF0000E1E6E000E1D6E1CC0D4
:1028200018F018461846C2501818830B1818C26EB4
:10283000C282C2B2FED7C3CF1DF0C4CF1EF01DC0EE
:1028400016F01EC017F01200E8CF17F0ACA2FED7AA
:10285000240ED6EC14F0ACA2FED7210ED6EC14F068
:10286000ACA2FED71750D6EC14F0ACA2FED70A0EDD
:10287000D6EC14F01200E8CF02F0ACA2FED7240E82
:10288000E0EC14F0ACA2FED7210EE0EC14F0ACA208
:10289000FED70250E0EC14F0ACA2FED70A0EE0EC3A
:1028A00014F0120002C006F001C005F004D0054A81
:1028B000062A034A042A03C0D9FF04C0DAFF05C070
:1028C000E1FF06C0E2FFDFCFE7FFE750D8B4120018
:1028D000EED71FC016F020C017F0186A226E8E0EB9
:1028E000196E2250236E000E1A6E2350A9EC10F0C0
:1028F00016C01FF017C020F018C021F01200E8CF5A
:1029000018F0166E000E176E16503A0E185CD8B0FE
:1029100007D02F0E186404D0166E010E176E1650D5
:1029200017C016F016301200ACA2FED717C0D9FFA0
:1029300018C0DAFFDF50D6EC14F017C0D9FF18C06A
:10294000DAFF174A182ADF50D8B41200EDD7E8CFC3
:1029500017F0ACA2FED7240ED6EC14F0ACA2FED732
:102960003F0ED6EC14F0ACA2FED71750D6EC14F004
:102970001200040E09EC14F016C023F017C024F066
:10298000050E09EC14F016C025F017C026F0120051
:10299000E8CF17F03F0EC716000EC66E000EC56ECC
:1029A0001750C6121650C712C68A1200E8CF16F08A
:1029B000ACAC03D0AC9042B2AC8016C0ADFF1200FC
:1029C000E8CF01F0ACAC03D0AC9042B2AC8001C017
:1029D000ADFF1200F1FAFFFFC5FEFFFFFF1400007C
:0E29E00079FFFFFF1F040000E5290000010041
:020000040020DA
:08000000FFFFFFFFFFFFFFFF00
:020000040030CA
:0E000000FF220613FFB780FF0FC00FE00F4076
:00000001FF
