:04000000A2EF00F07B
:10000800FACF04F0FBCF05F0E9CF06F0EACF07F00E
:10001800E1CF08F0E2CF09F0D9CF0AF0DACF0BF040
:10002800F3CF0CF0F4CF0DF0F6CF0EF0F7CF0FF0C2
:10003800F8CF10F0F5CF11F0F29EF2A40BD0F294A5
:10004800000ED76E000ED66E000144880101010132
:10005800BD2B04009EA00CD09E90000ECF6E000E0B
:10006800CE6E01010101924B932B0001448A0400DA
:100078009EAA39D09E9A010101019451010D0101F6
:10008800950EF324D96E0101010EF420DA6EAECF7D
:10009800DFFF010101019451010D0101950EF324C7
:1000A800D96E0101010EF420DA6E0A0EDF6202D069
:1000B8000001448401010101942B01019405036EA0
:1000C8000350010D0101950EF324D96E0101010EB3
:1000D800F420DA6E240EDF6206D0036E000E0101F2
:1000E8000101946F0350A4AA03D0A49A0001448686
:1000F800F2A206D0F292000144804C0E81EC13F07B
:10010800F28E11C0F5FF10C0F8FF0FC0F7FF0EC048
:10011800F6FF0DC0F4FF0CC0F3FF0BC0DAFF0AC0F6
:10012800D9FF09C0E2FF08C0E1FF07C0EAFF06C027
:10013800E9FF05C0FBFF04C0FAFF1100E3EF10F070
:100600000001000A006400E80310272C000000002D
:1006100000803FF0FFBEE2A93E8376BEAE2B3E3C9B
:10062000C3BDD2133D78D3BB3C04429F6A429001C4
:10063000424DBB40EC473E8E1FBB3C04425A8B42AE
:100640000444429C4F4100803F25642C25642C25A6
:10065000642C25642C25642C25642C25642C2564AD
:100660002C2564000000000E01010101656F000EE1
:100670000101646F000E01010101726F000E0101A2
:10068000716F0001A96F000E01010101686F000187
:10069000A95121EE74F011EE3CF01E0EDECFE6FF04
:1006A000E82EFCD70B0EF66E060EF76E0900010160
:1006B000F5CF66F10A000101F5CF67F10001A96FDE
:1006C000000E01010101736F0001A951000E01012B
:1006D00001016C6F000E01016B6F00F000F004006F
:1006E0007F0ED06E9EEC0DF0000E00010001856FB4
:1006F000000E0001846F0001A96F010E00010001CE
:10070000866F0001A9517CEC07F0000E000100018A
:10071000856F000E0001846F0001A96F020E0001B9
:100720000001866F0001A9517CEC07F0000E00016A
:100730000001856F000E0001846F0001A96F030E98
:1007400000010001866F0001A9517CEC07F0000E4A
:1007500000010001856F000E0001846F0001A96F88
:10076000040E00010001866F0001A9517CEC07F026
:1007700004000101010E00010001616F0101000E82
:1007800000010001606F060E00010001636F490E59
:1007900000010001626F60C164F061C165F05AC17F
:1007A00066F05BC167F05CC168F05DC169F05EC175
:1007B0006AF05FC16BF062C16CF063C16DF06FC134
:1007C0006EF070C16FF06DC170F06EC171F064C1F8
:1007D00072F065C173F071C174F072C175F0E2EC32
:1007E0000BF00A0E01010101BD655CD00001A96F8B
:1007F000010E01010101BD6F0001A951A5EC0CF032
:10080000000184C060F1000185C061F19AEC10F034
:10081000000184C06DF1000185C06EF1010101018C
:100820006E51800A800F150ED8B46D5DD8A003D02C
:10083000500EC3EC13F0010101016E51800A800FCC
:10084000150ED8B46D5DD8A003D0500E6AEC13F02D
:1008500056EC0FF0000184C06FF1000185C070F10B
:10086000010101017051800A800F420ED8B46F5D02
:10087000D8A003D0540EC3EC13F001010101705154
:10088000800A800F4C0ED8B46F5DD8A003D0540EF0
:100890006AEC13F01EEC0BF000019DC062F1000148
:1008A0009EC063F10101BDC112F0136A000E156E06
:1008B000050E146E02EC10F013501210D8A415D0CF
:1008C000000144A812D00101010E196E0101000EB1
:1008D000186E0101010E136E0101000E126EA4ECE0
:1008E00012F012041A6E1BEC12F004000101010157
:1008F000BDB135D0000144A832D0010E35EC13F063
:1009000012C01BF013C01CF0000E1E6E050E1D6EF3
:10091000C1EC12F01BC064F11CC065F1000E35EC97
:1009200013F012C071F113C072F101010101725193
:10093000800A790FD40ED8B4715DD8A003D0430ECD
:10094000C3EC13F0010101017251800A790FD10E3D
:10095000D8B4715DD8A003D0430E6AEC13F0000147
:1009600044A802D0000144980400150E01010101C1
:10097000925D000E01019359D8B005D0010101012B
:100980006851D8B40CD00001A96F010E010101011A
:10099000686F0001A95189984E0E6AEC13F00001AE
:1009A00044A403D189880001A96F000E010101014F
:1009B000946F0001A951000144940101010E1E6EC3
:1009C0000101950E1D6E0101010E206E0101660EE2
:1009D0001F6E86EC0EF01DC069F11EC06AF10101A8
:1009E0006AC124F0010169C123F0EFEC0EF023C0CD
:1009F0003CF124C03DF13CC16BF13DC16CF1000103
:100A0000A96F010E01010101736F0001A9514AD0C4
:100A1000000E1E6E000E1D6E0101010E206E010102
:100A2000660E1F6E86EC0EF01DC069F11EC06AF1E5
:100A300001016AC124F0010169C123F0EFEC0EF05D
:100A4000010101017351020D01013C0EF324D96E25
:100A50000101010EF420DA6E23C0DEFF24C0DDFFA9
:100A6000010101017351020D01013C0EF324D96E05
:100A70000101010EF420DA6EDECFA9F0DDCFAAF07D
:100A8000010101016B510001A925010101016B6FF9
:100A9000010101016C510001AA2101016C6F0101EA
:100AA0000101732B080E010101017365B1D7000E1E
:100AB0001E6E000E1D6E0101010E206E0101660EFC
:100AC0001F6E86EC0EF01DC023F01EC024F0EFEC6C
:100AD0000EF0010101016C51241804E10101010132
:100AE0006B512318D8A461D0000E01010101936F4E
:100AF000000E0101926F0001A96F000E01010101BA
:100B0000686F0001A95189883CC184F03DC185F01E
:100B10000001A96F010E00010001866F0001A951BB
:100B20007CEC07F03EC184F03FC185F00001A96F65
:100B3000020E00010001866F0001A9517CEC07F054
:100B400040C184F041C185F00001A96F030E00018E
:100B50000001866F0001A9517CEC07F042C184F0CE
:100B600043C185F00001A96F040E00010001866FEA
:100B70000001A9517CEC07F044C112F045C113F00B
:100B800046C114F047C115F0F4EC11F048C11BF058
:100B900049C11CF04AC11DF04BC11EF0D5EC13F049
:100BA000010101014D514C118C96000144A602D067
:100BB000000144960400000144B002D081A2D8D5BF
:100BC000000144904C0E6AEC13F0D2D5000177C0BE
:100BD0007BF000017C6B7D6B00010001763500012C
:100BE0007B3701E37C8100017B5100010001836FB1
:100BF00000017AC07BF000017C6B7D6B000100017D
:100C0000793500017B3701E37C8100017B510001D4
:100C10000001826F000100018351D8B416D0000199
:100C20000001825100010001835DD8B015D00001A0
:100C300000018351000800010001822500017B6F43
:100C4000190E00017B5DD8A007D078C075F079C07F
:100C500076F07AC077F01200000100018251D8B41A
:100C600016D000010001835100010001825DD8B05F
:100C700015D0000100018251000800010001832508
:100C800000017B6F190E00017B5DD8A007D075C0F5
:100C900075F076C076F077C077F0120000017B6FB8
:100CA000060E00010001816F00017B51000100016F
:100CB00077AF03D000010001818F000100017AAFFE
:100CC00003D000010001818D00010001768FFF0E2D
:100CD000000100017517FF0E000100017617000EDC
:100CE00000010001771700010001798FFF0E00015C
:100CF00000017817FF0E000100017917000E0001B6
:100D000000017A1700010001825100010001835D9A
:100D1000D8B031D00001D890000178370001793780
:100D200000017A37000100018207000100018251B1
:100D3000000100018319D8B416D000010001810719
:100D400081C07BF0070E00017B17D8B40CD0E2D72E
:100D50000001D8900001773300017633000175332C
:100D600000010001832B00010001825100010001FC
:100D70008363EED738D000010001835100010001E8
:100D8000825DD8B030D00001D890000175370001E5
:100D90007637000177370001000183070001000169
:100DA0008251000100018319D8B416D0000100015E
:100DB000810781C07BF0070E00017B17D8B40CD0EF
:100DC000E2D70001D89000017A33000179330001A5
:100DD000783300010001822B0001000182510001E3
:100DE00000018363EED70001000181AF18D0FF0E30
:100DF00000010001751BFF0E00010001761BFF0EB4
:100E000000010001771B010E000100017527000E93
:100E1000000100017623000E00010001772300018C
:100E2000000181AD18D0FF0E00010001781BFF0EFC
:100E300000010001791BFF0E000100017A1B010E69
:100E4000000100017827000E000100017923000E47
:100E5000000100017A2300017B6F000E00010001F8
:100E6000816F00017B5100010001755100010001FB
:100E7000782700010001765100010001792300016B
:100E800000017751000100017A23000100017AAFCF
:100E900020D0FF0E00010001781BFF0E00010001B1
:100EA000791BFF0E000100017A1B010E00010001F9
:100EB0007827000E000100017923000E00010001D7
:100EC0007A2300017B6F010E00010001816F000198
:100ED0007B5178C012F079C013F07AC014F083C04F
:100EE00015F081C016F0AEEC0FF012C075F013C013
:100EF00076F014C077F012000001876F000E000139
:100F000000018D6F00018751000E000100018F6FFD
:100F1000000E00018E6F000100018551800A800FD4
:100F2000870ED8B4845DD8A04BD00001876F010E26
:100F3000000100018D6F00018751000E00010001CA
:100F4000636F800E00010001646F430E0001000119
:100F5000656F000E236EFC0E246E420E256E810E10
:100F60000001000184251A6EFF0E00010001852199
:100F70001B6E7AEC11F01AC020F01BC021F01CC0CF
:100F800022F013EC0EF020C060F021C061F022C00E
:100F900062F090EC08F060C075F061C076F062C05D
:100FA00077F07CEC09F075C087F076C088F077C0E8
:100FB00089F078C08AF087C08EF088C08FF0A0D00A
:100FC000000100018551800AF36E800EF35C780EFB
:100FD000D8B4845DD8B054D00001876F000E0001F2
:100FE00000018D6F00018751000E00010001636F49
:100FF000800E00010001646F430E00010001656F67
:10100000000E236EFC0E246E420E256E000184C07D
:1010100087F0000185C088F00001871F881F874B7B
:10102000882B7E0E000187251A6E000E0001882194
:101030001B6E7AEC11F01AC020F01BC021F01CC00E
:1010400022F013EC0EF020C060F021C061F022C04D
:1010500062F090EC08F060C075F061C076F062C09C
:1010600077F07CEC09F075C089F076C08AF077C023
:101070008BF078C08CF089C08EF08AC08FF040D0A1
:10108000000E000100018F6F000E00018E6F38D03E
:10109000000100018DB102D08A9601D08A868EC0EF
:1010A00012F08FC013F018EC13F0120000010001D1
:1010B0008DB102D08A9801D08A888EC012F08FC07C
:1010C00013F0FBEC12F01200000100018DB102D010
:1010D0008A9C01D08A8C8EC012F08FC013F083ECF2
:1010E00012F01200000100018DB102D08C9001D0ED
:1010F0008C808EC012F08FC013F062EC12F01200E0
:10110000000100018651010AD8B4C2D7030AD8B43D
:10111000CDD7010AD8B4D8D7070AD8A41200E2D78D
:10112000000162C066F00001676B686B000100019E
:1011300061350001663701E36781000166510001F6
:1011400000016F6F00016F670DD0000E00010001FC
:10115000606F000E00010001616F000E00010001D0
:10116000626F1200000165C066F00001676B686B7A
:101170000001000164350001663701E36781000169
:10118000665100010001746F000174670DD0000EFC
:1011900000010001606F000E00010001616F000E90
:1011A00000010001626F12000001000174517B0F09
:1011B000000100016F2762C074F000010001655159
:1011C00000010001741B800E000100017417000172
:1011D0000001618F00010001648FFF0E000100011A
:1011E0006317FF0E000100016417000E00010001EB
:1011F0006517000E00010001706F000E0001000174
:10120000716F000E00010001726F0001666F070E22
:1012100000010001736F000166510001000160A12F
:1012200012D000010001635100010001702700018C
:1012300000016451000100017123000100016551AA
:101240000001000172230001D89000016233000107
:101250006133000160330001D89000016337000161
:1012600064370001653700010001732FD6D70001F4
:10127000666F090E00010001736F000166510001E5
:10128000000160A112D000010001635100010001C2
:101290007027000100016451000100017123000169
:1012A000000165510001000172230001D890000186
:1012B000623300016133000160330001D890000106
:1012C0007233000171330001703300010001732F8C
:1012D000D6D770C012F071C013F072C014F06FC096
:1012E00015F074C016F0AEEC0FF012C060F013C031
:1012F00061F014C062F01200000177C079F00001C3
:101300007A6B7B6B0001000176350001793701E3D0
:101310007A810001795100010001836F0001836728
:101320000ED0000E00010001756F000E0001766FF7
:10133000000E0001776F000E0001786F1200170E8B
:101340000001796F000175C07AF0000176C07BF072
:10135000000177C07CF00001792900017D6F05D084
:101360000001D8907C337B337A3300017D2FF8D78E
:1013700000017A51000100017E6F00010001768FAB
:10138000FF0E000100017517FF0E00010001761726
:10139000000E0001000177170001000175510001E6
:1013A00000017F6F0001000176510001806F000194
:1013B00077510001816F0001826B8E0E00010001E8
:1013C000835F0001000183AF29D000010001835138
:1013D000800A0001796FF10E800A0001795DD8B0B2
:1013E0000ED0000E00010001756F000E0001766F37
:1013F000000E0001776F000E0001786F12000001EF
:10140000D890000182330001813300018033000154
:101410007F3300010001833FF2D724D0170E000173
:10142000000183651BD0000E00010001756F000EE6
:101430000001766F000E0001776F000E0001786FDB
:1014400012000001D89000017F37000180370001B1
:10145000813700018237000100018307000100018C
:101460008367EFD7000100017E51D8B410D000018E
:101470000001821F0001811F0001801F00017F6D9C
:10148000000E0001802300018123000182237FC020
:1014900075F080C076F081C077F082C078F01200DD
:1014A000000100019551800A800F07E1000E000144
:1014B000945D03E1000E0001935DD8B014D0000EDE
:1014C00000010001B26F210E0001B16F000E00019A
:1014D0000001936F000E00010001946F000E0001E7
:1014E0000001956F12007F0E0001000195150001AB
:1014F000941100019311D8A414D0000E0001000132
:10150000B26F220E0001B16F000E00010001936F57
:10151000000E00010001946F000E00010001956FA4
:101520001200000E00010001636F000E00010001B7
:10153000646F400E00010001656F0001000E166E21
:101540000001980E156E93C012F094C013F095C070
:1015500014F050EC10F012C060F013C061F014C031
:1015600062F090EC08F060C075F061C076F062C087
:1015700077F0000E00010001786F800E000100017D
:10158000796FBF0E000100017A6FE6EC05F075C0BF
:1015900093F076C094F077C095F0000100019807B1
:1015A000D8A0990793C084F094C085F095C086F0C8
:1015B000060E00010001886F0D0E00010001876F0B
:1015C000000E000100018A6F080E0001896F23ECF4
:1015D0000DF084C093F085C094F086C095F0720E33
:1015E00000010001636F310E00010001646F3F0EC6
:1015F00000010001656F98C01AF099C01BF07AECE9
:1016000011F01AC060F01BC061F01CC062F090ECD9
:1016100008F060C075F061C076F062C077F093C0EA
:1016200078F094C079F095C07AF0E6EC05F075C0DA
:1016300093F076C094F077C095F01200000E000190
:101640000001A66F000E00010001A76F000E00014F
:101650000001A86F160E35EC13F012C026F013C06F
:1016600027F098EC13F026C0A6F027C0A7F028C0FA
:10167000A8F0000E236E800E246E440E256EA6C0C8
:1016800020F0A7C021F0A8C022F013EC0EF020C07B
:1016900060F021C061F022C062F0000E0001000184
:1016A000636FA00E00010001646F400E0001000195
:1016B000656F90EC08F060C0A6F061C0A7F062C052
:1016C000A8F0A6C023F0A7C024F0A8C025F0500EB3
:1016D000206E430E216E470E226E13EC0EF020C0DA
:1016E00075F021C076F022C077F0400E00010001B5
:1016F000786F1C0E00010001796FC60E0001000119
:101700007A6FE6EC05F075C0A6F076C0A7F077C05A
:10171000A8F0A6C093F0A7C094F0A8C095F050EC34
:101720000AF093C0A3F094C0A4F095C0A5F0130EE6
:1017300000010001636FB00E00010001646F410EF3
:1017400000010001656FA3C060F0A4C061F0A5C0F6
:1017500062F090EC08F060C09AF061C09BF062C04B
:101760009CF0DEEC12F09AC075F09BC076F09CC045
:1017700077F03B0E00010001786F650E000100015B
:10178000796F430E000100017A6FE6EC05F075C039
:10179000A6F076C0A7F077C0A8F0A6C075F0A7C0E5
:1017A00076F0A8C077F07CEC09F075C09FF076C0A9
:1017B000A0F077C0A1F078C0A2F09FC09DF0A0C0BB
:1017C0009EF012000001000E2F6E0001640E2E6EBE
:1017D000A6D03750250AD8B40BD060C0D9FF61C05D
:1017E000DAFF37C0DFFF00010001604B612B97D0AB
:1017F0002C6E000E306E2C50000162C0F6FF00010E
:1018000063C0F7FF00010001624B632B0800F5CFB6
:1018100037F03750000AD8B491D0640AD8B403D056
:101820000D0AD8A47CD02EC0D9FF2FC0DAFFDECF9E
:1018300032F0DDCF33F0020E2E26000E2F22335071
:10184000800AF36E800EF35C000ED8B4325CD8B020
:1018500006D0030E3012326C331ED8B0332A2C6EF1
:10186000010E376E2C503750050AD8B416D03750B9
:10187000020D010EF324F66E060EF420F76E090039
:10188000F5CF2CF00900F5CF2DF02C50325C2D5007
:101890003358D8A002D0372AE6D730C02CF0030E38
:1018A0002C16D8B40AD060C0D9FF61C0DAFF2D0E63
:1018B000DF6E00010001604B612B37C031F02BD08F
:1018C0003150020D010EF324F66E060EF420F76E71
:1018D0000900F5CF1DF00A00F5CF1EF032C01BF055
:1018E00033C01CF04FEC11F01BC026F01CC027F0D9
:1018F000000E296E0A0E286E3FEC12F02650300FB3
:10190000376E60C0D9FF61C0DAFF37C0DFFF00016A
:101910000001604B612B31063128D8A4D1D70001DA
:1019200062C0F6FF000163C0F7FF00010001624BD7
:10193000632B0800F5CF37F037664BD760C0D9FF6F
:1019400061C0DAFF000EDF6E1200030E35EC13F0FB
:1019500012C026F013C027F098EC13F026C08CF0CC
:1019600027C08DF028C08EF08CC075F08DC076F049
:101970008EC077F0CD0E00010001786F4C0E000193
:101980000001796FC30E000100017A6FE6EC05F0EB
:1019900075C08CF076C08DF077C08EF0000E00011F
:1019A0000001636FFA0E00010001646F430E000135
:1019B0000001656F8CC060F08DC061F08EC062F078
:1019C00090EC08F060C020F061C021F062C022F00D
:1019D000000E236E4D0E246E440E256E13EC0EF099
:1019E00020C08CF021C08DF022C08EF0D70E0001F7
:1019F0000001636F130E00010001646F400E0001CF
:101A00000001656F8CC060F08DC061F08EC062F027
:101A100090EC08F060C075F061C076F062C077F0BD
:101A20007CEC09F075C086F076C087F077C088F04E
:101A300078C089F086C08AF087C08BF08AC084F0B5
:101A40008BC085F0120089C01BF08AC01CF0000E0C
:101A50001E6E030E1D6EC1EC12F0000187C08BF0EC
:101A6000000188C08CF01B5000018B271C50000126
:101A70008C238BC0F6FF8CC0F7FF09000001F5CF67
:101A800090F009000001F5CF91F00A000001F5CFB8
:101A900092F047D090C063F091C064F092C065F0BE
:101AA00084C060F085C061F086C062F090EC08F000
:101AB00060C075F061C076F062C077F0000E1E6EF7
:101AC000030E1D6E000100018907D8A08A0789C096
:101AD0001BF08AC01CF0C1EC12F0000187C08BF033
:101AE000000188C08CF01B5000018B271C500001A6
:101AF0008C238BC0F6FF8CC0F7FF09000001F5CFE7
:101B000078F009000001F5CF79F00A000001F5CF67
:101B10007AF0E6EC05F075C090F076C091F077C0F1
:101B200092F0000100018A518911D8A4B3D790C066
:101B300084F091C085F092C086F01200010EC26E52
:101B4000000EC16EA30EC06EF00EF26E210E9D6EE1
:101B5000EF0E926E2F0E0F010F01386F000E806E88
:101B60000400060E936E040E0F010F01396F000E74
:101B7000816E900E946E000E0F010F013A6F000EF1
:101B8000826EB40E956E000E0F010F013B6F000EBA
:101B9000836EF80E966E000E0F010F013C6F000E63
:101BA000846E820ED56E130ECD6E060EBA6E060EC4
:101BB0000F010F01516F0C0EBD6E0C0E666E0C0EF8
:101BC0000F010F015D6F0F0E0F010F01576F000E18
:101BD000B66E000E646E000E0F010F015B6F010EFA
:101BE000B96E010E636E010E0F010F015A6F0400F2
:101BF000010E0F010F01496F090E0F010F01486F10
:101C0000C69A186E800E126E1850080EE4EC13F08F
:101C1000310EC86E000E136E830E126E7C0E22EC17
:101C200011F00400120022C026F0276A286A21342D
:101C3000263601E327802650306E306607D0000E2E
:101C4000206E000E216E000E226E120025C026F0BE
:101C5000276A286A2434263601E327802650346E0A
:101C6000346607D0000E206E000E216E000E226E2C
:101C70001200000E316E000E326E000E336E3450C4
:101C8000890F305E22C034F02550341A800E34168D
:101C9000218EFF0E2016FF0E2116000E2216248E16
:101CA000FF0E2316FF0E2416000E2516266E180EA4
:101CB0002F6E2650D8903136323633362350205C82
:101CC0002450215825502258D8A007D02350205EF8
:101CD0002450215A2550225A3180D890203621365E
:101CE00022362F2EE7D731C012F032C013F033C0A6
:101CF00014F030C015F034C016F0AEEC0FF012C086
:101D000020F013C021F014C022F012001E501D104C
:101D1000D8A406D00001B4C01EF00001B3C01DF06D
:101D20001E501D10D8A405D0000E1E6E000E1D6E94
:101D300012001EC017F01DC016F020C019F01FC001
:101D400018F0A4EC11F016501D2617501E221DC0CD
:101D5000D9FF1EC0DAFFDF50D8A40FD0000E00015B
:101D60000001B46F000E00010001B36F0001B4C0A8
:101D70001EF00001B3C01DF012001EC017F01DC000
:101D800016F020C019F01FC018F0CCEC11F016505E
:101D90001D2400010001B36F17501E200001B46F15
:101DA000B3C0D9FFB4C0DAFFDF50D8B40BD0B3C092
:101DB000D9FFB4C0DAFF000EDF6E00010001B34BA3
:101DC000B42B08D0000E00010001B46F000E00011A
:101DD0000001B36F1EC01EF01DC01DF0120002D026
:101DE000234A242A23C0D9FF24C0DAFFDF50200A67
:101DF000D8B4F6D723C0D9FF24C0DAFFDF50090AD0
:101E0000D8B4EED7000E296E000E286E256E000E97
:101E1000276E25502D0E23C0D9FF24C0DAFFDF62C4
:101E200002D0272A23D02B0E23C0D9FF24C0DAFFEB
:101E3000DF621ED01BD028C01BF029C01CF0000E92
:101E40001E6E0A0E1D6EC1EC12F023C0D9FF24C015
:101E5000DAFFDF50256E266A1B5025261C502622ED
:101E6000D00E2524286EFF0E2620296E234A242A10
:101E700023C0D9FF24C0DAFFDF50AEEC13F0D8B096
:101E8000DAD72750D8B40DD028C025F029C026F0C5
:101E9000251E261E254A262A25C023F026C024F00A
:101EA000120028C023F029C024F01200000E000107
:101EB00000018A6F000E000100018B6F000E00010F
:101EC00000018C6F080E35EC13F012C026F013C021
:101ED00027F098EC13F026C08AF027C08BF028C0BA
:101EE0008CF0000E236E800E246E440E256E8AC088
:101EF00020F08BC021F08CC022F013EC0EF020C03B
:101F000060F021C061F022C062F0000E000100010B
:101F1000636FFA0E00010001646F430E00010001BF
:101F2000656F90EC08F060C08AF061C08BF062C011
:101F30008CF08AC075F08BC076F08CC077F07CECAA
:101F400009F075C086F076C087F077C088F078C059
:101F500089F086C084F087C085F012001550D8B48F
:101F600005D0125013101410D8A40CD0000E126E0D
:101F7000000E136E000E146E1200152AD890143243
:101F800013321232000E1214176E000E1314186E54
:101F9000FE0E1414196E175018101910D8B40CD066
:101FA000ECD7152A010E1226000E1322000E142261
:101FB000D890143213321232000E1214176E000E23
:101FC0001314186EFF0E1414196E175018101910F0
:101FD000D8B406D0E6D71506D89012361336143684
:101FE00013AEF9D715A0139ED890153215501412C0
:101FF0001650D8A4148E12C012F013C013F014C0DF
:1020000014F01200166E000E186E16501350800A4F
:10201000F36E800EF35C000ED8B4125CD8B008D01A
:10202000126C131ED8B0132A166E010E186E1650BD
:102030001550800AF36E800EF35C000ED8B4145C69
:10204000D8B004D0146C151ED8B0152A1550141031
:10205000D8B41AD0166E010E176E165004D0D89050
:1020600014361536172A15AEFAD71450125C1550CF
:102070001358D8A004D01450125E1550135AD8909B
:1020800015321432172EF1D71850D8B404D0126C70
:10209000131ED8B0132A12C012F013C013F012008E
:1020A0007F0E141413101210D8A40FD015C0D9FF2E
:1020B00016C0DAFF000EDE6E000EDD6E000E126E30
:1020C000000E136E000E146E120014507F0B176E6C
:1020D000D8901734186E196A193615C0D9FF16C072
:1020E000DAFF18C0DEFF19C0DDFF13AE03D0176A98
:1020F000172A01D0176A175015C0D9FF16C0DAFF8A
:10210000DE12000EDD1215C0D9FF16C0DAFF820EF6
:10211000DE26FF0EDD2214801482148414861488B7
:10212000148A149C139E12C012F013C013F014C032
:1021300014F01200000E000100018B6F000E000170
:102140008A6F000E00010001636FCB0E00010001D9
:10215000646F420E00010001656F030E1E6E9A0E41
:102160001D6E020E35EC13F0D70E12241B6EFF0EFF
:1021700013201C6E4FEC11F01BC026F01CC027F082
:1021800098EC13F026C060F027C061F028C062F020
:1021900090EC08F060C075F061C076F062C077F036
:1021A0007CEC09F075C086F076C087F077C088F0C7
:1021B00078C089F086C08AF087C08BF08AC084F02E
:1021C0008BC085F0120001EE74F0490EEE6AE8064D
:1021D000FDE100EEABF0160EEE6AE806FDE1446AA2
:1021E000486A476A466A456A240EF66E280EF76EFC
:1021F000000EF86E0900F5CFBDF1180EF66E280E30
:10220000F76E000EF86E00EEC1F010EE0CF0090053
:10221000F5CFEEFFE550E150FAE10C0EF66E280E18
:10222000F76E000EF86E00EE38F010EE0CF00900BC
:10223000F5CFEEFFE550E150FAE1000EF86E000137
:1022400033EF03F0E8CF17F0000EAC6E000EAB6E6C
:1022500017B0AC8817A202D0AC8CAB8C17B4AC8E84
:1022600017A602D0AB8801D0AB8A17B8AC8417BAD6
:10227000AB8617AC02D09D8A01D09D9A17AE02D0D2
:102280009D8801D09D9812C0AFFF13C014F014C0F8
:1022900015F0166A1550B06EAC8AAB8E1200000EA7
:1022A000246E000E236E1E501D10D8B41ED01F6E5B
:1022B000010E256E1F5004D0D8901D361E36252ADB
:1022C0001EAEFAD7D890233624361D501B5C1E5004
:1022D0001C58D8A005D01D501B5E1E501C5A2380D0
:1022E000D8901E321D32252EEDD723C01BF024C0FE
:1022F0001CF012001D6E000E1F6E1D501B50800A38
:10230000F36E800EF35C000ED8B41A5CD8B008D01F
:102310001A6C1B1ED8B01B2A1D6E010E1F6E1D509D
:102320001AC012F01BC013F0146A1D6E8E0E156ECB
:102330001D501FC016F0AEEC0FF012C01AF013C003
:102340001BF014C01CF01200000E1C6E000E1B6E61
:1023500004D0164A172A1B4A1C2A16C0D9FF17C0D8
:10236000DAFFDF50D8B413D019C013F018C012F040
:1023700016C0D9FF17C0DAFFDF501A6E1A50146E5C
:10238000156A50EC13F013501210D8A4E2D71BC0FA
:1023900016F01CC017F01200000E1C6E000E1B6E13
:1023A00004D0164A172A1B4A1C2A16C0D9FF17C088
:1023B000DAFFDF50D8B413D019C013F018C012F0F0
:1023C00016C0D9FF17C0DAFFDF501A6E1A50146E0C
:1023D000156A50EC13F013501210D8B4E2D71BC09A
:1023E00016F01CC017F012001350800A800F800EE8
:1023F000D8B4125CD8A002D08D8201D08D92125038
:102400007F0A1310D8A402D08D9401D08D8415506A
:10241000800A800F800ED8B4145CD8A002D08A8EB7
:1024200001D08A9E14507F0A1510D8A402D08B9038
:1024300012008B8012001B6E000E1C6E1B50ACA293
:10244000FED7240EF2EC13F01B6E000E1C6E1B5018
:102450000ED0ACA2FED71C50010DF3501824D96E3B
:10246000F4501920DA6EDF50F2EC13F01C2A1A50E7
:102470001C5CD8A0EED70A0EF2EC13F01200295023
:102480002810D8B41AD02A6E010E2B6E2A5004D010
:10249000D890283629362B2A29AEFAD72850265C20
:1024A00029502758D8A004D02850265E2950275AF2
:1024B000D890293228322B2EF1D726C026F027C0FB
:1024C00027F0120012C014F013C015F0060ED890B9
:1024D00014361536E82EFBD714C016F015C017F0C9
:1024E00017C058FF16C014F0D8901432D890143288
:1024F000300E14160F010F015751CF0B14100F019E
:102500000F01576F120012C014F013C015F0060E21
:10251000D89014361536E82EFBD714C016F015C027
:1025200017F017C05EFF16C014F0D8901432D89080
:102530001432300E14160F010F015D51CF0B141021
:102540000F010F015D6F120013C017F012C016F0DB
:1025500002D0164A172A16C0D9FF17C0DAFFDF507B
:10256000D8A4F7D712C014F013C015F0141E151E0E
:10257000144A152A16501424126E17501520136E83
:1025800012001B501D02F3CF21F0F4CF22F01B509C
:102590001E02F3CFF4FFF36AF3502126F4502222F7
:1025A0001C501D02F3CFF4FFF36AF3502126F450C0
:1025B000222221C01BF022C01CF012007F0E00015D
:1025C00000019C1500019B1100019A11D8B40CD098
:1025D000000E000100019A1B000E000100019B1B70
:1025E000800E000100019C1B9AC09AF09BC09BF0DA
:1025F0009CC09CF0120012C014F013C015F0060E1F
:10260000D89014361536E82EFBD714C016F015C036
:1026100017F017C067FF16C014F0D8901432D89086
:102620001432300E14166650CF0B1410666E120062
:1026300012C014F013C015F0060ED89014361536DB
:10264000E82EFBD714C016F015C017F017C0BEFF58
:1026500016C014F0D8901432D8901432300E1416DC
:10266000BD50CF0B1410BD6E1200E8CF18F0000E55
:102670001A6E000E196E18C014F014461446C2509B
:102680001418830B1418C26EC282C2B2FED7C3CF15
:1026900019F0C4CF1AF019C012F01AC013F01200CA
:1026A000145012C0D9FF13C0DAFFDF6205D013C087
:1026B00013F012C012F0120012C0D9FF13C0DAFFDB
:1026C000124A132ADF50D8A4EBD7000E136E000E67
:1026D000126E1200E8CF13F0ACA2FED7240EF2EC7B
:1026E00013F0ACA2FED7210EF2EC13F0ACA2FED791
:1026F0001350F2EC13F0ACA2FED70A0EF2EC13F07A
:102700001200E8CF02F0ACA2FED7240EFCEC13F0CE
:10271000ACA2FED7210EFCEC13F0ACA2FED7025007
:10272000FCEC13F0ACA2FED70A0EFCEC13F0120086
:1027300026C012F027C013F0146A296E8E0E156E93
:1027400029502A6E000E166E2A50AEEC0FF012C001
:1027500026F013C027F014C028F01200E8CF14F0C0
:10276000126E000E136E12503A0E145CD8B007D0E1
:102770002F0E146404D0126E010E136E125013C08B
:1027800012F012301200E8CF13F0ACA2FED7240EE4
:10279000F2EC13F0ACA2FED73F0EF2EC13F0ACA2B9
:1027A000FED71350F2EC13F01200040E35EC13F0C8
:1027B00012C01FF013C020F0050E35EC13F012C04C
:1027C00021F013C022F01200E8CF13F03F0EC7161D
:1027D000000EC66E000EC56E1350C6121250C71200
:1027E000C68A1200E8CF12F0ACAC03D0AC9045B270
:1027F000AC8012C0ADFF1200E8CF01F0ACAC03D04A
:10280000AC9045B2AC8001C0ADFF1200F1FAFFFF01
:10281000C5FEFFFFFF14000079FFFFFF1F0400004B
:06282000E52900000100A3
:020000040020DA
:08000000FFFFFFFFFFFFFFFF00
:020000040030CA
:0E000000FF22063FFFB780FF0FC00FE00F404A
:00000001FF
